{
  "contractName": "NFTMarket",
  "abi": [
    {
      "inputs": [],
      "stateMutability": "nonpayable",
      "type": "constructor"
    },
    {
      "anonymous": false,
      "inputs": [
        {
          "indexed": true,
          "internalType": "address",
          "name": "owner",
          "type": "address"
        },
        {
          "indexed": true,
          "internalType": "address",
          "name": "approved",
          "type": "address"
        },
        {
          "indexed": true,
          "internalType": "uint256",
          "name": "tokenId",
          "type": "uint256"
        }
      ],
      "name": "Approval",
      "type": "event"
    },
    {
      "anonymous": false,
      "inputs": [
        {
          "indexed": true,
          "internalType": "address",
          "name": "owner",
          "type": "address"
        },
        {
          "indexed": true,
          "internalType": "address",
          "name": "operator",
          "type": "address"
        },
        {
          "indexed": false,
          "internalType": "bool",
          "name": "approved",
          "type": "bool"
        }
      ],
      "name": "ApprovalForAll",
      "type": "event"
    },
    {
      "anonymous": false,
      "inputs": [
        {
          "indexed": false,
          "internalType": "uint256",
          "name": "tokenId",
          "type": "uint256"
        },
        {
          "indexed": false,
          "internalType": "uint256",
          "name": "price",
          "type": "uint256"
        },
        {
          "indexed": false,
          "internalType": "address",
          "name": "creator",
          "type": "address"
        },
        {
          "indexed": false,
          "internalType": "bool",
          "name": "isListed",
          "type": "bool"
        }
      ],
      "name": "NftItemCreated",
      "type": "event"
    },
    {
      "anonymous": false,
      "inputs": [
        {
          "indexed": true,
          "internalType": "address",
          "name": "previousOwner",
          "type": "address"
        },
        {
          "indexed": true,
          "internalType": "address",
          "name": "newOwner",
          "type": "address"
        }
      ],
      "name": "OwnershipTransferred",
      "type": "event"
    },
    {
      "anonymous": false,
      "inputs": [
        {
          "indexed": true,
          "internalType": "address",
          "name": "from",
          "type": "address"
        },
        {
          "indexed": true,
          "internalType": "address",
          "name": "to",
          "type": "address"
        },
        {
          "indexed": true,
          "internalType": "uint256",
          "name": "tokenId",
          "type": "uint256"
        }
      ],
      "name": "Transfer",
      "type": "event"
    },
    {
      "stateMutability": "payable",
      "type": "fallback",
      "payable": true
    },
    {
      "inputs": [
        {
          "internalType": "address",
          "name": "to",
          "type": "address"
        },
        {
          "internalType": "uint256",
          "name": "tokenId",
          "type": "uint256"
        }
      ],
      "name": "approve",
      "outputs": [],
      "stateMutability": "nonpayable",
      "type": "function"
    },
    {
      "inputs": [
        {
          "internalType": "address",
          "name": "owner",
          "type": "address"
        }
      ],
      "name": "balanceOf",
      "outputs": [
        {
          "internalType": "uint256",
          "name": "",
          "type": "uint256"
        }
      ],
      "stateMutability": "view",
      "type": "function",
      "constant": true
    },
    {
      "inputs": [
        {
          "internalType": "uint256",
          "name": "tokenId",
          "type": "uint256"
        }
      ],
      "name": "getApproved",
      "outputs": [
        {
          "internalType": "address",
          "name": "",
          "type": "address"
        }
      ],
      "stateMutability": "view",
      "type": "function",
      "constant": true
    },
    {
      "inputs": [
        {
          "internalType": "address",
          "name": "owner",
          "type": "address"
        },
        {
          "internalType": "address",
          "name": "operator",
          "type": "address"
        }
      ],
      "name": "isApprovedForAll",
      "outputs": [
        {
          "internalType": "bool",
          "name": "",
          "type": "bool"
        }
      ],
      "stateMutability": "view",
      "type": "function",
      "constant": true
    },
    {
      "inputs": [],
      "name": "listingPrice",
      "outputs": [
        {
          "internalType": "uint256",
          "name": "",
          "type": "uint256"
        }
      ],
      "stateMutability": "view",
      "type": "function",
      "constant": true
    },
    {
      "inputs": [],
      "name": "name",
      "outputs": [
        {
          "internalType": "string",
          "name": "",
          "type": "string"
        }
      ],
      "stateMutability": "view",
      "type": "function",
      "constant": true
    },
    {
      "inputs": [],
      "name": "owner",
      "outputs": [
        {
          "internalType": "address",
          "name": "",
          "type": "address"
        }
      ],
      "stateMutability": "view",
      "type": "function",
      "constant": true
    },
    {
      "inputs": [
        {
          "internalType": "uint256",
          "name": "tokenId",
          "type": "uint256"
        }
      ],
      "name": "ownerOf",
      "outputs": [
        {
          "internalType": "address",
          "name": "",
          "type": "address"
        }
      ],
      "stateMutability": "view",
      "type": "function",
      "constant": true
    },
    {
      "inputs": [],
      "name": "renounceOwnership",
      "outputs": [],
      "stateMutability": "nonpayable",
      "type": "function"
    },
    {
      "inputs": [
        {
          "internalType": "address",
          "name": "from",
          "type": "address"
        },
        {
          "internalType": "address",
          "name": "to",
          "type": "address"
        },
        {
          "internalType": "uint256",
          "name": "tokenId",
          "type": "uint256"
        }
      ],
      "name": "safeTransferFrom",
      "outputs": [],
      "stateMutability": "nonpayable",
      "type": "function"
    },
    {
      "inputs": [
        {
          "internalType": "address",
          "name": "from",
          "type": "address"
        },
        {
          "internalType": "address",
          "name": "to",
          "type": "address"
        },
        {
          "internalType": "uint256",
          "name": "tokenId",
          "type": "uint256"
        },
        {
          "internalType": "bytes",
          "name": "data",
          "type": "bytes"
        }
      ],
      "name": "safeTransferFrom",
      "outputs": [],
      "stateMutability": "nonpayable",
      "type": "function"
    },
    {
      "inputs": [
        {
          "internalType": "address",
          "name": "operator",
          "type": "address"
        },
        {
          "internalType": "bool",
          "name": "approved",
          "type": "bool"
        }
      ],
      "name": "setApprovalForAll",
      "outputs": [],
      "stateMutability": "nonpayable",
      "type": "function"
    },
    {
      "inputs": [
        {
          "internalType": "bytes4",
          "name": "interfaceId",
          "type": "bytes4"
        }
      ],
      "name": "supportsInterface",
      "outputs": [
        {
          "internalType": "bool",
          "name": "",
          "type": "bool"
        }
      ],
      "stateMutability": "view",
      "type": "function",
      "constant": true
    },
    {
      "inputs": [],
      "name": "symbol",
      "outputs": [
        {
          "internalType": "string",
          "name": "",
          "type": "string"
        }
      ],
      "stateMutability": "view",
      "type": "function",
      "constant": true
    },
    {
      "inputs": [
        {
          "internalType": "uint256",
          "name": "tokenId",
          "type": "uint256"
        }
      ],
      "name": "tokenURI",
      "outputs": [
        {
          "internalType": "string",
          "name": "",
          "type": "string"
        }
      ],
      "stateMutability": "view",
      "type": "function",
      "constant": true
    },
    {
      "inputs": [
        {
          "internalType": "address",
          "name": "from",
          "type": "address"
        },
        {
          "internalType": "address",
          "name": "to",
          "type": "address"
        },
        {
          "internalType": "uint256",
          "name": "tokenId",
          "type": "uint256"
        }
      ],
      "name": "transferFrom",
      "outputs": [],
      "stateMutability": "nonpayable",
      "type": "function"
    },
    {
      "inputs": [
        {
          "internalType": "address",
          "name": "newOwner",
          "type": "address"
        }
      ],
      "name": "transferOwnership",
      "outputs": [],
      "stateMutability": "nonpayable",
      "type": "function"
    },
    {
      "stateMutability": "payable",
      "type": "receive",
      "payable": true
    },
    {
      "inputs": [
        {
          "internalType": "uint256",
          "name": "_price",
          "type": "uint256"
        }
      ],
      "name": "setListingPrice",
      "outputs": [],
      "stateMutability": "nonpayable",
      "type": "function"
    },
    {
      "inputs": [
        {
          "internalType": "uint256",
          "name": "tokenId",
          "type": "uint256"
        }
      ],
      "name": "getNftItem",
      "outputs": [
        {
          "components": [
            {
              "internalType": "uint256",
              "name": "tokenId",
              "type": "uint256"
            },
            {
              "internalType": "uint256",
              "name": "price",
              "type": "uint256"
            },
            {
              "internalType": "address",
              "name": "creator",
              "type": "address"
            },
            {
              "internalType": "bool",
              "name": "isListed",
              "type": "bool"
            }
          ],
          "internalType": "struct NFTMarket.NftItem",
          "name": "",
          "type": "tuple"
        }
      ],
      "stateMutability": "view",
      "type": "function",
      "constant": true
    },
    {
      "inputs": [],
      "name": "listedItemsCount",
      "outputs": [
        {
          "internalType": "uint256",
          "name": "",
          "type": "uint256"
        }
      ],
      "stateMutability": "view",
      "type": "function",
      "constant": true
    },
    {
      "inputs": [
        {
          "internalType": "string",
          "name": "tokenURI",
          "type": "string"
        }
      ],
      "name": "tokenURIExists",
      "outputs": [
        {
          "internalType": "bool",
          "name": "",
          "type": "bool"
        }
      ],
      "stateMutability": "view",
      "type": "function",
      "constant": true
    },
    {
      "inputs": [],
      "name": "totalSupply",
      "outputs": [
        {
          "internalType": "uint256",
          "name": "",
          "type": "uint256"
        }
      ],
      "stateMutability": "view",
      "type": "function",
      "constant": true
    },
    {
      "inputs": [
        {
          "internalType": "uint256",
          "name": "index",
          "type": "uint256"
        }
      ],
      "name": "tokenByIndex",
      "outputs": [
        {
          "internalType": "uint256",
          "name": "",
          "type": "uint256"
        }
      ],
      "stateMutability": "view",
      "type": "function",
      "constant": true
    },
    {
      "inputs": [
        {
          "internalType": "address",
          "name": "owner",
          "type": "address"
        },
        {
          "internalType": "uint256",
          "name": "index",
          "type": "uint256"
        }
      ],
      "name": "tokenOfOwnerByIndex",
      "outputs": [
        {
          "internalType": "uint256",
          "name": "",
          "type": "uint256"
        }
      ],
      "stateMutability": "view",
      "type": "function",
      "constant": true
    },
    {
      "inputs": [],
      "name": "getAllNftsOnSale",
      "outputs": [
        {
          "components": [
            {
              "internalType": "uint256",
              "name": "tokenId",
              "type": "uint256"
            },
            {
              "internalType": "uint256",
              "name": "price",
              "type": "uint256"
            },
            {
              "internalType": "address",
              "name": "creator",
              "type": "address"
            },
            {
              "internalType": "bool",
              "name": "isListed",
              "type": "bool"
            }
          ],
          "internalType": "struct NFTMarket.NftItem[]",
          "name": "",
          "type": "tuple[]"
        }
      ],
      "stateMutability": "view",
      "type": "function",
      "constant": true
    },
    {
      "inputs": [],
      "name": "getOwnedNfts",
      "outputs": [
        {
          "components": [
            {
              "internalType": "uint256",
              "name": "tokenId",
              "type": "uint256"
            },
            {
              "internalType": "uint256",
              "name": "price",
              "type": "uint256"
            },
            {
              "internalType": "address",
              "name": "creator",
              "type": "address"
            },
            {
              "internalType": "bool",
              "name": "isListed",
              "type": "bool"
            }
          ],
          "internalType": "struct NFTMarket.NftItem[]",
          "name": "",
          "type": "tuple[]"
        }
      ],
      "stateMutability": "view",
      "type": "function",
      "constant": true
    },
    {
      "inputs": [
        {
          "internalType": "uint256",
          "name": "tokenId",
          "type": "uint256"
        }
      ],
      "name": "burnToken",
      "outputs": [],
      "stateMutability": "nonpayable",
      "type": "function"
    },
    {
      "inputs": [
        {
          "internalType": "string",
          "name": "tokenURI",
          "type": "string"
        },
        {
          "internalType": "uint256",
          "name": "price",
          "type": "uint256"
        }
      ],
      "name": "mintToken",
      "outputs": [
        {
          "internalType": "uint256",
          "name": "",
          "type": "uint256"
        }
      ],
      "stateMutability": "payable",
      "type": "function",
      "payable": true
    },
    {
      "inputs": [
        {
          "internalType": "uint256",
          "name": "tokenId",
          "type": "uint256"
        }
      ],
      "name": "buyNft",
      "outputs": [],
      "stateMutability": "payable",
      "type": "function",
      "payable": true
    },
    {
      "inputs": [
        {
          "internalType": "uint256",
          "name": "tokenId",
          "type": "uint256"
        },
        {
          "internalType": "uint256",
          "name": "price",
          "type": "uint256"
        }
      ],
      "name": "placeNftOnSale",
      "outputs": [],
      "stateMutability": "payable",
      "type": "function",
      "payable": true
    },
    {
      "inputs": [],
      "name": "widthDraw",
      "outputs": [],
      "stateMutability": "nonpayable",
      "type": "function"
    }
  ],
  "bytecode": "0x60806040526658d15e17628000600a553480156200001c57600080fd5b506040518060400160405280600c81526020017f4372656174757265734e465400000000000000000000000000000000000000008152506040518060400160405280600481526020017f434e4654000000000000000000000000000000000000000000000000000000008152508160009080519060200190620000a1929190620001c3565b508060019080519060200190620000ba929190620001c3565b505050620000ef620000da620000f5640100000000026401000000009004565b620000fd640100000000026401000000009004565b620002d8565b600033905090565b6000600760009054906101000a900473ffffffffffffffffffffffffffffffffffffffff16905081600760006101000a81548173ffffffffffffffffffffffffffffffffffffffff021916908373ffffffffffffffffffffffffffffffffffffffff1602179055508173ffffffffffffffffffffffffffffffffffffffff168173ffffffffffffffffffffffffffffffffffffffff167f8be0079c531659141344cd1fd0a4f28419497f9722a3daafe3b4186f6b6457e060405160405180910390a35050565b828054620001d190620002a2565b90600052602060002090601f016020900481019282620001f5576000855562000241565b82601f106200021057805160ff191683800117855562000241565b8280016001018555821562000241579182015b828111156200024057825182559160200191906001019062000223565b5b50905062000250919062000254565b5090565b5b808211156200026f57600081600090555060010162000255565b5090565b7f4e487b7100000000000000000000000000000000000000000000000000000000600052602260045260246000fd5b60006002820490506001821680620002bb57607f821691505b60208210811415620002d257620002d162000273565b5b50919050565b614b2880620002e86000396000f3fe6080604052600436106101f9576000357c01000000000000000000000000000000000000000000000000000000009004806370a082311161011f578063b88d4fde116100b2578063ccb4918d11610081578063ccb4918d146106f2578063e985e9c51461071d578063f03de3971461075a578063f2fde38b1461077157610200565b8063b88d4fde14610631578063c046372c1461065a578063c78f19f91461068a578063c87b56dd146106b557610200565b80637c726b69116100ee5780637c726b69146105895780638da5cb5b146105b257806395d89b41146105dd578063a22cb4651461060857610200565b806370a08231146104e157806370cbcb431461051e578063715018a6146105495780637b47ec1a1461056057610200565b8063243adbdd1161019757806343d32ae71161016657806343d32ae7146103ed5780634f6ccce71461042a5780636352211e146104675780636f1a0af5146104a457610200565b8063243adbdd146103405780632f745c591461035c57806336b536be1461039957806342842e0e146103c457610200565b8063095ea7b3116101d3578063095ea7b3146102a757806318160ddd146102d057806321f422e5146102fb57806323b872dd1461031757610200565b806301ffc9a71461020257806306fdde031461023f578063081812fc1461026a57610200565b3661020057005b005b34801561020e57600080fd5b5061022960048036038101906102249190613213565b61079a565b604051610236919061325b565b60405180910390f35b34801561024b57600080fd5b5061025461087c565b604051610261919061330f565b60405180910390f35b34801561027657600080fd5b50610291600480360381019061028c9190613367565b61090e565b60405161029e91906133d5565b60405180910390f35b3480156102b357600080fd5b506102ce60048036038101906102c9919061341c565b610954565b005b3480156102dc57600080fd5b506102e5610a6c565b6040516102f2919061346b565b60405180910390f35b61031560048036038101906103109190613486565b610a79565b005b34801561032357600080fd5b5061033e600480360381019061033991906134c6565b610c02565b005b61035a60048036038101906103559190613367565b610c62565b005b34801561036857600080fd5b50610383600480360381019061037e919061341c565b610e3e565b604051610390919061346b565b60405180910390f35b3480156103a557600080fd5b506103ae610ee3565b6040516103bb919061364a565b60405180910390f35b3480156103d057600080fd5b506103eb60048036038101906103e691906134c6565b61107d565b005b3480156103f957600080fd5b50610414600480360381019061040f91906137a1565b61109d565b604051610421919061325b565b60405180910390f35b34801561043657600080fd5b50610451600480360381019061044c9190613367565b6110d2565b60405161045e919061346b565b60405180910390f35b34801561047357600080fd5b5061048e60048036038101906104899190613367565b611143565b60405161049b91906133d5565b60405180910390f35b3480156104b057600080fd5b506104cb60048036038101906104c69190613367565b6111f5565b6040516104d8919061383f565b60405180910390f35b3480156104ed57600080fd5b506105086004803603810190610503919061385a565b6112a7565b604051610515919061346b565b60405180910390f35b34801561052a57600080fd5b5061053361135f565b604051610540919061364a565b60405180910390f35b34801561055557600080fd5b5061055e6114d0565b005b34801561056c57600080fd5b5061058760048036038101906105829190613367565b6114e4565b005b34801561059557600080fd5b506105b060048036038101906105ab9190613367565b6114f0565b005b3480156105be57600080fd5b506105c7611545565b6040516105d491906133d5565b60405180910390f35b3480156105e957600080fd5b506105f261156f565b6040516105ff919061330f565b60405180910390f35b34801561061457600080fd5b5061062f600480360381019061062a91906138b3565b611601565b005b34801561063d57600080fd5b5061065860048036038101906106539190613994565b611617565b005b610674600480360381019061066f9190613a17565b611679565b604051610681919061346b565b60405180910390f35b34801561069657600080fd5b5061069f611789565b6040516106ac919061346b565b60405180910390f35b3480156106c157600080fd5b506106dc60048036038101906106d79190613367565b61178f565b6040516106e9919061330f565b60405180910390f35b3480156106fe57600080fd5b506107076118a2565b604051610714919061346b565b60405180910390f35b34801561072957600080fd5b50610744600480360381019061073f9190613a73565b6118b3565b604051610751919061325b565b60405180910390f35b34801561076657600080fd5b5061076f611947565b005b34801561077d57600080fd5b506107986004803603810190610793919061385a565b611a13565b005b60007f80ac58cd000000000000000000000000000000000000000000000000000000007bffffffffffffffffffffffffffffffffffffffffffffffffffffffff1916827bffffffffffffffffffffffffffffffffffffffffffffffffffffffff1916148061086557507f5b5e139f000000000000000000000000000000000000000000000000000000007bffffffffffffffffffffffffffffffffffffffffffffffffffffffff1916827bffffffffffffffffffffffffffffffffffffffffffffffffffffffff1916145b80610875575061087482611a97565b5b9050919050565b60606000805461088b90613ae2565b80601f01602080910402602001604051908101604052809291908181526020018280546108b790613ae2565b80156109045780601f106108d957610100808354040283529160200191610904565b820191906000526020600020905b8154815290600101906020018083116108e757829003601f168201915b5050505050905090565b600061091982611b01565b6004600083815260200190815260200160002060009054906101000a900473ffffffffffffffffffffffffffffffffffffffff169050919050565b600061095f82611143565b90508073ffffffffffffffffffffffffffffffffffffffff168373ffffffffffffffffffffffffffffffffffffffff1614156109d0576040517f08c379a00000000000000000000000000000000000000000000000000000000081526004016109c790613b86565b60405180910390fd5b8073ffffffffffffffffffffffffffffffffffffffff166109ef611b4c565b73ffffffffffffffffffffffffffffffffffffffff161480610a1e5750610a1d81610a18611b4c565b6118b3565b5b610a5d576040517f08c379a0000000000000000000000000000000000000000000000000000000008152600401610a5490613c18565b60405180910390fd5b610a678383611b54565b505050565b6000600b80549050905090565b6000610a83611b4c565b90508073ffffffffffffffffffffffffffffffffffffffff16610aa584611143565b73ffffffffffffffffffffffffffffffffffffffff1614610afb576040517f08c379a0000000000000000000000000000000000000000000000000000000008152600401610af290613c84565b60405180910390fd5b60001515600d600085815260200190815260200160002060020160149054906101000a900460ff16151514610b65576040517f08c379a0000000000000000000000000000000000000000000000000000000008152600401610b5c90613cf0565b60405180910390fd5b600a543414610ba9576040517f08c379a0000000000000000000000000000000000000000000000000000000008152600401610ba090613d82565b60405180910390fd5b6001600d600085815260200190815260200160002060020160146101000a81548160ff02191690831515021790555081600d600085815260200190815260200160002060010181905550610bfd6008611c0d565b505050565b610c13610c0d611b4c565b82611c23565b610c52576040517f08c379a0000000000000000000000000000000000000000000000000000000008152600401610c4990613e14565b60405180910390fd5b610c5d838383611cb8565b505050565b6000610c6c611b4c565b90506000600d60008481526020019081526020016000206001015490506000610c9484611143565b90508073ffffffffffffffffffffffffffffffffffffffff168373ffffffffffffffffffffffffffffffffffffffff161415610d05576040517f08c379a0000000000000000000000000000000000000000000000000000000008152600401610cfc90613e80565b60405180910390fd5b813414610d47576040517f08c379a0000000000000000000000000000000000000000000000000000000008152600401610d3e90613eec565b60405180910390fd5b6000600d600086815260200190815260200160002060020160146101000a81548160ff021916908315150217905550610d806008611f1f565b610d8b818486611cb8565b60008173ffffffffffffffffffffffffffffffffffffffff1634604051610db190613f3d565b60006040518083038185875af1925050503d8060008114610dee576040519150601f19603f3d011682016040523d82523d6000602084013e610df3565b606091505b5050905080610e37576040517f08c379a0000000000000000000000000000000000000000000000000000000008152600401610e2e90613f9e565b60405180910390fd5b5050505050565b6000610e49836112a7565b8210610e8a576040517f08c379a0000000000000000000000000000000000000000000000000000000008152600401610e819061400a565b60405180910390fd5b600f60008473ffffffffffffffffffffffffffffffffffffffff1673ffffffffffffffffffffffffffffffffffffffff168152602001908152602001600020600083815260200190815260200160002054905092915050565b60606000610eef610a6c565b9050600080610efe6008611f7b565b67ffffffffffffffff811115610f1757610f16613676565b5b604051908082528060200260200182016040528015610f5057816020015b610f3d613084565b815260200190600190039081610f355790505b50905060005b83811015611073576000610f69826110d2565b90506000600d60008381526020019081526020016000209050600115158160020160149054906101000a900460ff161515141561105e578060405180608001604052908160008201548152602001600182015481526020016002820160009054906101000a900473ffffffffffffffffffffffffffffffffffffffff1673ffffffffffffffffffffffffffffffffffffffff1673ffffffffffffffffffffffffffffffffffffffff1681526020016002820160149054906101000a900460ff1615151515815250508486815181106110445761104361402a565b5b6020026020010181905250848061105a90614088565b9550505b5050808061106b90614088565b915050610f56565b5080935050505090565b61109883838360405180602001604052806000815250611617565b505050565b6000600c826040516110af919061410d565b908152602001604051809103902060009054906101000a900460ff169050919050565b60006110dc610a6c565b821061111d576040517f08c379a00000000000000000000000000000000000000000000000000000000081526004016111149061400a565b60405180910390fd5b600b82815481106111315761113061402a565b5b90600052602060002001549050919050565b6000806002600084815260200190815260200160002060009054906101000a900473ffffffffffffffffffffffffffffffffffffffff169050600073ffffffffffffffffffffffffffffffffffffffff168173ffffffffffffffffffffffffffffffffffffffff1614156111ec576040517f08c379a00000000000000000000000000000000000000000000000000000000081526004016111e390614170565b60405180910390fd5b80915050919050565b6111fd613084565b600d600083815260200190815260200160002060405180608001604052908160008201548152602001600182015481526020016002820160009054906101000a900473ffffffffffffffffffffffffffffffffffffffff1673ffffffffffffffffffffffffffffffffffffffff1673ffffffffffffffffffffffffffffffffffffffff1681526020016002820160149054906101000a900460ff1615151515815250509050919050565b60008073ffffffffffffffffffffffffffffffffffffffff168273ffffffffffffffffffffffffffffffffffffffff161415611318576040517f08c379a000000000000000000000000000000000000000000000000000000000815260040161130f90614202565b60405180910390fd5b600360008373ffffffffffffffffffffffffffffffffffffffff1673ffffffffffffffffffffffffffffffffffffffff168152602001908152602001600020549050919050565b6060600061136b611b4c565b90506000611378826112a7565b905060008167ffffffffffffffff81111561139657611395613676565b5b6040519080825280602002602001820160405280156113cf57816020015b6113bc613084565b8152602001906001900390816113b45790505b50905060005b828110156114c65760006113e98583610e3e565b90506000600d600083815260200190815260200160002090508060405180608001604052908160008201548152602001600182015481526020016002820160009054906101000a900473ffffffffffffffffffffffffffffffffffffffff1673ffffffffffffffffffffffffffffffffffffffff1673ffffffffffffffffffffffffffffffffffffffff1681526020016002820160149054906101000a900460ff1615151515815250508484815181106114a6576114a561402a565b5b6020026020010181905250505080806114be90614088565b9150506113d5565b5080935050505090565b6114d8611f89565b6114e26000612007565b565b6114ed816120cd565b50565b6114f8611f89565b6000811161153b576040517f08c379a00000000000000000000000000000000000000000000000000000000081526004016115329061426e565b60405180910390fd5b80600a8190555050565b6000600760009054906101000a900473ffffffffffffffffffffffffffffffffffffffff16905090565b60606001805461157e90613ae2565b80601f01602080910402602001604051908101604052809291908181526020018280546115aa90613ae2565b80156115f75780601f106115cc576101008083540402835291602001916115f7565b820191906000526020600020905b8154815290600101906020018083116115da57829003601f168201915b5050505050905090565b61161361160c611b4c565b8383612120565b5050565b611628611622611b4c565b83611c23565b611667576040517f08c379a000000000000000000000000000000000000000000000000000000000815260040161165e90613e14565b60405180910390fd5b6116738484848461228d565b50505050565b60006116848361109d565b156116c4576040517f08c379a00000000000000000000000000000000000000000000000000000000081526004016116bb906142da565b60405180910390fd5b600a543414611708576040517f08c379a00000000000000000000000000000000000000000000000000000000081526004016116ff90613d82565b60405180910390fd5b6117126009611c0d565b61171c6008611c0d565b60006117286009611f7b565b90506001600c8560405161173c919061410d565b908152602001604051809103902060006101000a81548160ff02191690831515021790555061176b81846122e9565b6117753382612446565b61177f8185612464565b8091505092915050565b600a5481565b606061179a82611b01565b60006006600084815260200190815260200160002080546117ba90613ae2565b80601f01602080910402602001604051908101604052809291908181526020018280546117e690613ae2565b80156118335780601f1061180857610100808354040283529160200191611833565b820191906000526020600020905b81548152906001019060200180831161181657829003601f168201915b5050505050905060006118446124d8565b905060008151141561185a57819250505061189d565b60008251111561188f5780826040516020016118779291906142fa565b6040516020818303038152906040529250505061189d565b611898846124ef565b925050505b919050565b60006118ae6008611f7b565b905090565b6000600560008473ffffffffffffffffffffffffffffffffffffffff1673ffffffffffffffffffffffffffffffffffffffff16815260200190815260200160002060008373ffffffffffffffffffffffffffffffffffffffff1673ffffffffffffffffffffffffffffffffffffffff16815260200190815260200160002060009054906101000a900460ff16905092915050565b61194f611f89565b6000611959611b4c565b905060008173ffffffffffffffffffffffffffffffffffffffff1661197d306112a7565b60405161198990613f3d565b60006040518083038185875af1925050503d80600081146119c6576040519150601f19603f3d011682016040523d82523d6000602084013e6119cb565b606091505b5050905080611a0f576040517f08c379a0000000000000000000000000000000000000000000000000000000008152600401611a069061436a565b60405180910390fd5b5050565b611a1b611f89565b600073ffffffffffffffffffffffffffffffffffffffff168173ffffffffffffffffffffffffffffffffffffffff161415611a8b576040517f08c379a0000000000000000000000000000000000000000000000000000000008152600401611a82906143fc565b60405180910390fd5b611a9481612007565b50565b60007f01ffc9a7000000000000000000000000000000000000000000000000000000007bffffffffffffffffffffffffffffffffffffffffffffffffffffffff1916827bffffffffffffffffffffffffffffffffffffffffffffffffffffffff1916149050919050565b611b0a81612557565b611b49576040517f08c379a0000000000000000000000000000000000000000000000000000000008152600401611b4090614170565b60405180910390fd5b50565b600033905090565b816004600083815260200190815260200160002060006101000a81548173ffffffffffffffffffffffffffffffffffffffff021916908373ffffffffffffffffffffffffffffffffffffffff160217905550808273ffffffffffffffffffffffffffffffffffffffff16611bc783611143565b73ffffffffffffffffffffffffffffffffffffffff167f8c5be1e5ebec7d5bd14f71427d1e84f3dd0314c0f7b2291e5b200ac8c7c3b92560405160405180910390a45050565b6001816000016000828254019250508190555050565b600080611c2f83611143565b90508073ffffffffffffffffffffffffffffffffffffffff168473ffffffffffffffffffffffffffffffffffffffff161480611c715750611c7081856118b3565b5b80611caf57508373ffffffffffffffffffffffffffffffffffffffff16611c978461090e565b73ffffffffffffffffffffffffffffffffffffffff16145b91505092915050565b8273ffffffffffffffffffffffffffffffffffffffff16611cd882611143565b73ffffffffffffffffffffffffffffffffffffffff1614611d2e576040517f08c379a0000000000000000000000000000000000000000000000000000000008152600401611d259061448e565b60405180910390fd5b600073ffffffffffffffffffffffffffffffffffffffff168273ffffffffffffffffffffffffffffffffffffffff161415611d9e576040517f08c379a0000000000000000000000000000000000000000000000000000000008152600401611d9590614520565b60405180910390fd5b611da98383836125c3565b611db4600082611b54565b6001600360008573ffffffffffffffffffffffffffffffffffffffff1673ffffffffffffffffffffffffffffffffffffffff1681526020019081526020016000206000828254611e049190614540565b925050819055506001600360008473ffffffffffffffffffffffffffffffffffffffff1673ffffffffffffffffffffffffffffffffffffffff1681526020019081526020016000206000828254611e5b9190614574565b92505081905550816002600083815260200190815260200160002060006101000a81548173ffffffffffffffffffffffffffffffffffffffff021916908373ffffffffffffffffffffffffffffffffffffffff160217905550808273ffffffffffffffffffffffffffffffffffffffff168473ffffffffffffffffffffffffffffffffffffffff167fddf252ad1be2c89b69c2b068fc378daa952ba7f163c4a11628f55a4df523b3ef60405160405180910390a4611f1a8383836126d7565b505050565b60008160000154905060008111611f6b576040517f08c379a0000000000000000000000000000000000000000000000000000000008152600401611f6290614616565b60405180910390fd5b6001810382600001819055505050565b600081600001549050919050565b611f91611b4c565b73ffffffffffffffffffffffffffffffffffffffff16611faf611545565b73ffffffffffffffffffffffffffffffffffffffff1614612005576040517f08c379a0000000000000000000000000000000000000000000000000000000008152600401611ffc90614682565b60405180910390fd5b565b6000600760009054906101000a900473ffffffffffffffffffffffffffffffffffffffff16905081600760006101000a81548173ffffffffffffffffffffffffffffffffffffffff021916908373ffffffffffffffffffffffffffffffffffffffff1602179055508173ffffffffffffffffffffffffffffffffffffffff168173ffffffffffffffffffffffffffffffffffffffff167f8be0079c531659141344cd1fd0a4f28419497f9722a3daafe3b4186f6b6457e060405160405180910390a35050565b6120d6816126dc565b60006006600083815260200190815260200160002080546120f690613ae2565b90501461211d5760066000828152602001908152602001600020600061211c91906130c4565b5b50565b8173ffffffffffffffffffffffffffffffffffffffff168373ffffffffffffffffffffffffffffffffffffffff16141561218f576040517f08c379a0000000000000000000000000000000000000000000000000000000008152600401612186906146ee565b60405180910390fd5b80600560008573ffffffffffffffffffffffffffffffffffffffff1673ffffffffffffffffffffffffffffffffffffffff16815260200190815260200160002060008473ffffffffffffffffffffffffffffffffffffffff1673ffffffffffffffffffffffffffffffffffffffff16815260200190815260200160002060006101000a81548160ff0219169083151502179055508173ffffffffffffffffffffffffffffffffffffffff168373ffffffffffffffffffffffffffffffffffffffff167f17307eab39ab6107e8899845ad3d59bd9653f200f220920489ca2b5937696c3183604051612280919061325b565b60405180910390a3505050565b612298848484611cb8565b6122a4848484846127f9565b6122e3576040517f08c379a00000000000000000000000000000000000000000000000000000000081526004016122da90614780565b60405180910390fd5b50505050565b6000811161232c576040517f08c379a00000000000000000000000000000000000000000000000000000000081526004016123239061426e565b60405180910390fd5b6000612336611b4c565b905060405180608001604052808481526020018381526020018273ffffffffffffffffffffffffffffffffffffffff16815260200160011515815250600d6000858152602001908152602001600020600082015181600001556020820151816001015560408201518160020160006101000a81548173ffffffffffffffffffffffffffffffffffffffff021916908373ffffffffffffffffffffffffffffffffffffffff16021790555060608201518160020160146101000a81548160ff0219169083151502179055509050507f470031062672bc0246e132c723a729c4676710ec663a29e86c88678032daddea838383600160405161243994939291906147a0565b60405180910390a1505050565b6124608282604051806020016040528060008152506129b9565b5050565b61246d82612557565b6124ac576040517f08c379a00000000000000000000000000000000000000000000000000000000081526004016124a390614857565b60405180910390fd5b806006600084815260200190815260200160002090805190602001906124d3929190613104565b505050565b606060405180602001604052806000815250905090565b60606124fa82611b01565b60006125046124d8565b90506000815111612524576040518060200160405280600081525061254f565b8061252e84612a14565b60405160200161253f9291906142fa565b6040516020818303038152906040525b915050919050565b60008073ffffffffffffffffffffffffffffffffffffffff166002600084815260200190815260200160002060009054906101000a900473ffffffffffffffffffffffffffffffffffffffff1673ffffffffffffffffffffffffffffffffffffffff1614159050919050565b6125ce838383612b94565b600073ffffffffffffffffffffffffffffffffffffffff168373ffffffffffffffffffffffffffffffffffffffff1614156126115761260c81612b99565b612650565b8173ffffffffffffffffffffffffffffffffffffffff168373ffffffffffffffffffffffffffffffffffffffff161461264f5761264e8382612be2565b5b5b600073ffffffffffffffffffffffffffffffffffffffff168273ffffffffffffffffffffffffffffffffffffffff1614156126935761268e81612d37565b6126d2565b8273ffffffffffffffffffffffffffffffffffffffff168273ffffffffffffffffffffffffffffffffffffffff16146126d1576126d08282612e08565b5b5b505050565b505050565b60006126e782611143565b90506126f5816000846125c3565b612700600083611b54565b6001600360008373ffffffffffffffffffffffffffffffffffffffff1673ffffffffffffffffffffffffffffffffffffffff16815260200190815260200160002060008282546127509190614540565b925050819055506002600083815260200190815260200160002060006101000a81549073ffffffffffffffffffffffffffffffffffffffff021916905581600073ffffffffffffffffffffffffffffffffffffffff168273ffffffffffffffffffffffffffffffffffffffff167fddf252ad1be2c89b69c2b068fc378daa952ba7f163c4a11628f55a4df523b3ef60405160405180910390a46127f5816000846126d7565b5050565b600061281a8473ffffffffffffffffffffffffffffffffffffffff16612e87565b156129ac578373ffffffffffffffffffffffffffffffffffffffff1663150b7a02612843611b4c565b8786866040518563ffffffff167c010000000000000000000000000000000000000000000000000000000002815260040161288194939291906148cc565b6020604051808303816000875af19250505080156128bd57506040513d601f19601f820116820180604052508101906128ba919061492d565b60015b612940573d80600081146128ed576040519150601f19603f3d011682016040523d82523d6000602084013e6128f2565b606091505b50600081511415612938576040517f08c379a000000000000000000000000000000000000000000000000000000000815260040161292f90614780565b60405180910390fd5b805181602001fd5b63150b7a027c0100000000000000000000000000000000000000000000000000000000027bffffffffffffffffffffffffffffffffffffffffffffffffffffffff1916817bffffffffffffffffffffffffffffffffffffffffffffffffffffffff1916149150506129b1565b600190505b949350505050565b6129c38383612eaa565b6129d060008484846127f9565b612a0f576040517f08c379a0000000000000000000000000000000000000000000000000000000008152600401612a0690614780565b60405180910390fd5b505050565b60606000821415612a5c576040518060400160405280600181526020017f30000000000000000000000000000000000000000000000000000000000000008152509050612b8f565b600082905060005b60008214612a8e578080612a7790614088565b915050600a82612a879190614989565b9150612a64565b60008167ffffffffffffffff811115612aaa57612aa9613676565b5b6040519080825280601f01601f191660200182016040528015612adc5781602001600182028036833780820191505090505b5090505b60008514612b8857600182612af59190614540565b9150600a85612b0491906149ba565b6030612b109190614574565b7f010000000000000000000000000000000000000000000000000000000000000002818381518110612b4557612b4461402a565b5b60200101907effffffffffffffffffffffffffffffffffffffffffffffffffffffffffffff1916908160001a905350600a85612b819190614989565b9450612ae0565b8093505050505b919050565b505050565b600b80549050600e600083815260200190815260200160002081905550600b81908060018154018082558091505060019003906000526020600020016000909190919091505550565b60006001612bef846112a7565b612bf99190614540565b9050600060106000848152602001908152602001600020549050818114612cc6576000600f60008673ffffffffffffffffffffffffffffffffffffffff1673ffffffffffffffffffffffffffffffffffffffff168152602001908152602001600020600084815260200190815260200160002054905080600f60008773ffffffffffffffffffffffffffffffffffffffff1673ffffffffffffffffffffffffffffffffffffffff168152602001908152602001600020600084815260200190815260200160002081905550505b6010600084815260200190815260200160002060009055600f60008573ffffffffffffffffffffffffffffffffffffffff1673ffffffffffffffffffffffffffffffffffffffff16815260200190815260200160002060008381526020019081526020016000206000905550505050565b60006001600b80549050612d4b9190614540565b90506000600e60008481526020019081526020016000205490506000600b8381548110612d7b57612d7a61402a565b5b9060005260206000200154905080600b8381548110612d9d57612d9c61402a565b5b906000526020600020018190555081600e600083815260200190815260200160002081905550600e600085815260200190815260200160002060009055600b805480612dec57612deb6149eb565b5b6001900381819060005260206000200160009055905550505050565b6000612e13836112a7565b905081600f60008573ffffffffffffffffffffffffffffffffffffffff1673ffffffffffffffffffffffffffffffffffffffff168152602001908152602001600020600083815260200190815260200160002081905550806010600084815260200190815260200160002081905550505050565b6000808273ffffffffffffffffffffffffffffffffffffffff163b119050919050565b600073ffffffffffffffffffffffffffffffffffffffff168273ffffffffffffffffffffffffffffffffffffffff161415612f1a576040517f08c379a0000000000000000000000000000000000000000000000000000000008152600401612f1190614a66565b60405180910390fd5b612f2381612557565b15612f63576040517f08c379a0000000000000000000000000000000000000000000000000000000008152600401612f5a90614ad2565b60405180910390fd5b612f6f600083836125c3565b6001600360008473ffffffffffffffffffffffffffffffffffffffff1673ffffffffffffffffffffffffffffffffffffffff1681526020019081526020016000206000828254612fbf9190614574565b92505081905550816002600083815260200190815260200160002060006101000a81548173ffffffffffffffffffffffffffffffffffffffff021916908373ffffffffffffffffffffffffffffffffffffffff160217905550808273ffffffffffffffffffffffffffffffffffffffff16600073ffffffffffffffffffffffffffffffffffffffff167fddf252ad1be2c89b69c2b068fc378daa952ba7f163c4a11628f55a4df523b3ef60405160405180910390a4613080600083836126d7565b5050565b60405180608001604052806000815260200160008152602001600073ffffffffffffffffffffffffffffffffffffffff1681526020016000151581525090565b5080546130d090613ae2565b6000825580601f106130e25750613101565b601f016020900490600052602060002090810190613100919061318a565b5b50565b82805461311090613ae2565b90600052602060002090601f0160209004810192826131325760008555613179565b82601f1061314b57805160ff1916838001178555613179565b82800160010185558215613179579182015b8281111561317857825182559160200191906001019061315d565b5b509050613186919061318a565b5090565b5b808211156131a357600081600090555060010161318b565b5090565b6000604051905090565b600080fd5b600080fd5b60007fffffffff0000000000000000000000000000000000000000000000000000000082169050919050565b6131f0816131bb565b81146131fb57600080fd5b50565b60008135905061320d816131e7565b92915050565b600060208284031215613229576132286131b1565b5b6000613237848285016131fe565b91505092915050565b60008115159050919050565b61325581613240565b82525050565b6000602082019050613270600083018461324c565b92915050565b600081519050919050565b600082825260208201905092915050565b60005b838110156132b0578082015181840152602081019050613295565b838111156132bf576000848401525b50505050565b6000601f19601f8301169050919050565b60006132e182613276565b6132eb8185613281565b93506132fb818560208601613292565b613304816132c5565b840191505092915050565b6000602082019050818103600083015261332981846132d6565b905092915050565b6000819050919050565b61334481613331565b811461334f57600080fd5b50565b6000813590506133618161333b565b92915050565b60006020828403121561337d5761337c6131b1565b5b600061338b84828501613352565b91505092915050565b600073ffffffffffffffffffffffffffffffffffffffff82169050919050565b60006133bf82613394565b9050919050565b6133cf816133b4565b82525050565b60006020820190506133ea60008301846133c6565b92915050565b6133f9816133b4565b811461340457600080fd5b50565b600081359050613416816133f0565b92915050565b60008060408385031215613433576134326131b1565b5b600061344185828601613407565b925050602061345285828601613352565b9150509250929050565b61346581613331565b82525050565b6000602082019050613480600083018461345c565b92915050565b6000806040838503121561349d5761349c6131b1565b5b60006134ab85828601613352565b92505060206134bc85828601613352565b9150509250929050565b6000806000606084860312156134df576134de6131b1565b5b60006134ed86828701613407565b93505060206134fe86828701613407565b925050604061350f86828701613352565b9150509250925092565b600081519050919050565b600082825260208201905092915050565b6000819050602082019050919050565b61354e81613331565b82525050565b61355d816133b4565b82525050565b61356c81613240565b82525050565b6080820160008201516135886000850182613545565b50602082015161359b6020850182613545565b5060408201516135ae6040850182613554565b5060608201516135c16060850182613563565b50505050565b60006135d38383613572565b60808301905092915050565b6000602082019050919050565b60006135f782613519565b6136018185613524565b935061360c83613535565b8060005b8381101561363d57815161362488826135c7565b975061362f836135df565b925050600181019050613610565b5085935050505092915050565b6000602082019050818103600083015261366481846135ec565b905092915050565b600080fd5b600080fd5b7f4e487b7100000000000000000000000000000000000000000000000000000000600052604160045260246000fd5b6136ae826132c5565b810181811067ffffffffffffffff821117156136cd576136cc613676565b5b80604052505050565b60006136e06131a7565b90506136ec82826136a5565b919050565b600067ffffffffffffffff82111561370c5761370b613676565b5b613715826132c5565b9050602081019050919050565b82818337600083830152505050565b600061374461373f846136f1565b6136d6565b9050828152602081018484840111156137605761375f613671565b5b61376b848285613722565b509392505050565b600082601f8301126137885761378761366c565b5b8135613798848260208601613731565b91505092915050565b6000602082840312156137b7576137b66131b1565b5b600082013567ffffffffffffffff8111156137d5576137d46131b6565b5b6137e184828501613773565b91505092915050565b6080820160008201516138006000850182613545565b5060208201516138136020850182613545565b5060408201516138266040850182613554565b5060608201516138396060850182613563565b50505050565b600060808201905061385460008301846137ea565b92915050565b6000602082840312156138705761386f6131b1565b5b600061387e84828501613407565b91505092915050565b61389081613240565b811461389b57600080fd5b50565b6000813590506138ad81613887565b92915050565b600080604083850312156138ca576138c96131b1565b5b60006138d885828601613407565b92505060206138e98582860161389e565b9150509250929050565b600067ffffffffffffffff82111561390e5761390d613676565b5b613917826132c5565b9050602081019050919050565b6000613937613932846138f3565b6136d6565b90508281526020810184848401111561395357613952613671565b5b61395e848285613722565b509392505050565b600082601f83011261397b5761397a61366c565b5b813561398b848260208601613924565b91505092915050565b600080600080608085870312156139ae576139ad6131b1565b5b60006139bc87828801613407565b94505060206139cd87828801613407565b93505060406139de87828801613352565b925050606085013567ffffffffffffffff8111156139ff576139fe6131b6565b5b613a0b87828801613966565b91505092959194509250565b60008060408385031215613a2e57613a2d6131b1565b5b600083013567ffffffffffffffff811115613a4c57613a4b6131b6565b5b613a5885828601613773565b9250506020613a6985828601613352565b9150509250929050565b60008060408385031215613a8a57613a896131b1565b5b6000613a9885828601613407565b9250506020613aa985828601613407565b9150509250929050565b7f4e487b7100000000000000000000000000000000000000000000000000000000600052602260045260246000fd5b60006002820490506001821680613afa57607f821691505b60208210811415613b0e57613b0d613ab3565b5b50919050565b7f4552433732313a20617070726f76616c20746f2063757272656e74206f776e6560008201527f7200000000000000000000000000000000000000000000000000000000000000602082015250565b6000613b70602183613281565b9150613b7b82613b14565b604082019050919050565b60006020820190508181036000830152613b9f81613b63565b9050919050565b7f4552433732313a20617070726f76652063616c6c6572206973206e6f7420746f60008201527f6b656e206f776e6572206e6f7220617070726f76656420666f7220616c6c0000602082015250565b6000613c02603e83613281565b9150613c0d82613ba6565b604082019050919050565b60006020820190508181036000830152613c3181613bf5565b9050919050565b7f596f7520617265206e6f74206f776e6572206f662074686973206e6674000000600082015250565b6000613c6e601d83613281565b9150613c7982613c38565b602082019050919050565b60006020820190508181036000830152613c9d81613c61565b9050919050565b7f4974656d20697320616c7265616479206f6e2073616c65000000000000000000600082015250565b6000613cda601783613281565b9150613ce582613ca4565b602082019050919050565b60006020820190508181036000830152613d0981613ccd565b9050919050565b7f5072696365206d75737420626520657175616c20746f206c697374696e67207060008201527f7269636500000000000000000000000000000000000000000000000000000000602082015250565b6000613d6c602483613281565b9150613d7782613d10565b604082019050919050565b60006020820190508181036000830152613d9b81613d5f565b9050919050565b7f4552433732313a2063616c6c6572206973206e6f7420746f6b656e206f776e6560008201527f72206e6f7220617070726f766564000000000000000000000000000000000000602082015250565b6000613dfe602e83613281565b9150613e0982613da2565b604082019050919050565b60006020820190508181036000830152613e2d81613df1565b9050919050565b7f596f7520616c7265616479206f776e2074686973204e46540000000000000000600082015250565b6000613e6a601883613281565b9150613e7582613e34565b602082019050919050565b60006020820190508181036000830152613e9981613e5d565b9050919050565b7f506c65617365207375626d6974207468652061736b696e672070726963650000600082015250565b6000613ed6601e83613281565b9150613ee182613ea0565b602082019050919050565b60006020820190508181036000830152613f0581613ec9565b9050919050565b600081905092915050565b50565b6000613f27600083613f0c565b9150613f3282613f17565b600082019050919050565b6000613f4882613f1a565b9150819050919050565b7f43616e6e6f74207472616e7366657220746f6b656e20746f206f776e65720000600082015250565b6000613f88601e83613281565b9150613f9382613f52565b602082019050919050565b60006020820190508181036000830152613fb781613f7b565b9050919050565b7f496e646578206f7574206f6620626f756e647300000000000000000000000000600082015250565b6000613ff4601383613281565b9150613fff82613fbe565b602082019050919050565b6000602082019050818103600083015261402381613fe7565b9050919050565b7f4e487b7100000000000000000000000000000000000000000000000000000000600052603260045260246000fd5b7f4e487b7100000000000000000000000000000000000000000000000000000000600052601160045260246000fd5b600061409382613331565b91507fffffffffffffffffffffffffffffffffffffffffffffffffffffffffffffffff8214156140c6576140c5614059565b5b600182019050919050565b600081905092915050565b60006140e782613276565b6140f181856140d1565b9350614101818560208601613292565b80840191505092915050565b600061411982846140dc565b915081905092915050565b7f4552433732313a20696e76616c696420746f6b656e2049440000000000000000600082015250565b600061415a601883613281565b915061416582614124565b602082019050919050565b600060208201905081810360008301526141898161414d565b9050919050565b7f4552433732313a2061646472657373207a65726f206973206e6f74206120766160008201527f6c6964206f776e65720000000000000000000000000000000000000000000000602082015250565b60006141ec602983613281565b91506141f782614190565b604082019050919050565b6000602082019050818103600083015261421b816141df565b9050919050565b7f5072696365206d757374206265206174206c6561737420312077656900000000600082015250565b6000614258601c83613281565b915061426382614222565b602082019050919050565b600060208201905081810360008301526142878161424b565b9050919050565b7f546f6b656e2055524920616c7265616479206578697374730000000000000000600082015250565b60006142c4601883613281565b91506142cf8261428e565b602082019050919050565b600060208201905081810360008301526142f3816142b7565b9050919050565b600061430682856140dc565b915061431282846140dc565b91508190509392505050565b7f43616e6e6f74207472616e7366657220746f6b656e0000000000000000000000600082015250565b6000614354601583613281565b915061435f8261431e565b602082019050919050565b6000602082019050818103600083015261438381614347565b9050919050565b7f4f776e61626c653a206e6577206f776e657220697320746865207a65726f206160008201527f6464726573730000000000000000000000000000000000000000000000000000602082015250565b60006143e6602683613281565b91506143f18261438a565b604082019050919050565b60006020820190508181036000830152614415816143d9565b9050919050565b7f4552433732313a207472616e736665722066726f6d20696e636f72726563742060008201527f6f776e6572000000000000000000000000000000000000000000000000000000602082015250565b6000614478602583613281565b91506144838261441c565b604082019050919050565b600060208201905081810360008301526144a78161446b565b9050919050565b7f4552433732313a207472616e7366657220746f20746865207a65726f2061646460008201527f7265737300000000000000000000000000000000000000000000000000000000602082015250565b600061450a602483613281565b9150614515826144ae565b604082019050919050565b60006020820190508181036000830152614539816144fd565b9050919050565b600061454b82613331565b915061455683613331565b92508282101561456957614568614059565b5b828203905092915050565b600061457f82613331565b915061458a83613331565b9250827fffffffffffffffffffffffffffffffffffffffffffffffffffffffffffffffff038211156145bf576145be614059565b5b828201905092915050565b7f436f756e7465723a2064656372656d656e74206f766572666c6f770000000000600082015250565b6000614600601b83613281565b915061460b826145ca565b602082019050919050565b6000602082019050818103600083015261462f816145f3565b9050919050565b7f4f776e61626c653a2063616c6c6572206973206e6f7420746865206f776e6572600082015250565b600061466c602083613281565b915061467782614636565b602082019050919050565b6000602082019050818103600083015261469b8161465f565b9050919050565b7f4552433732313a20617070726f766520746f2063616c6c657200000000000000600082015250565b60006146d8601983613281565b91506146e3826146a2565b602082019050919050565b60006020820190508181036000830152614707816146cb565b9050919050565b7f4552433732313a207472616e7366657220746f206e6f6e20455243373231526560008201527f63656976657220696d706c656d656e7465720000000000000000000000000000602082015250565b600061476a603283613281565b91506147758261470e565b604082019050919050565b600060208201905081810360008301526147998161475d565b9050919050565b60006080820190506147b5600083018761345c565b6147c2602083018661345c565b6147cf60408301856133c6565b6147dc606083018461324c565b95945050505050565b7f45524337323155524953746f726167653a2055524920736574206f66206e6f6e60008201527f6578697374656e7420746f6b656e000000000000000000000000000000000000602082015250565b6000614841602e83613281565b915061484c826147e5565b604082019050919050565b6000602082019050818103600083015261487081614834565b9050919050565b600081519050919050565b600082825260208201905092915050565b600061489e82614877565b6148a88185614882565b93506148b8818560208601613292565b6148c1816132c5565b840191505092915050565b60006080820190506148e160008301876133c6565b6148ee60208301866133c6565b6148fb604083018561345c565b818103606083015261490d8184614893565b905095945050505050565b600081519050614927816131e7565b92915050565b600060208284031215614943576149426131b1565b5b600061495184828501614918565b91505092915050565b7f4e487b7100000000000000000000000000000000000000000000000000000000600052601260045260246000fd5b600061499482613331565b915061499f83613331565b9250826149af576149ae61495a565b5b828204905092915050565b60006149c582613331565b91506149d083613331565b9250826149e0576149df61495a565b5b828206905092915050565b7f4e487b7100000000000000000000000000000000000000000000000000000000600052603160045260246000fd5b7f4552433732313a206d696e7420746f20746865207a65726f2061646472657373600082015250565b6000614a50602083613281565b9150614a5b82614a1a565b602082019050919050565b60006020820190508181036000830152614a7f81614a43565b9050919050565b7f4552433732313a20746f6b656e20616c7265616479206d696e74656400000000600082015250565b6000614abc601c83613281565b9150614ac782614a86565b602082019050919050565b60006020820190508181036000830152614aeb81614aaf565b905091905056fea2646970667358221220297f1758e1f506731f57f2b9efc7995f022b4dd4ca49bf52559040808cdafe6464736f6c634300080a0033",
  "immutableReferences": {},
  "source": "// SPDX-License-Identifier: MIT\r\npragma solidity ^0.8.4;\r\n\r\nimport \"../node_modules/@openzeppelin/contracts/token/ERC721/extensions/ERC721URIStorage.sol\";\r\nimport \"../node_modules/@openzeppelin/contracts/utils/Counters.sol\";\r\nimport \"../node_modules/@openzeppelin/contracts/access/Ownable.sol\";\r\n\r\ncontract NFTMarket is ERC721URIStorage, Ownable {\r\n    using Counters for Counters.Counter;\r\n\r\n    Counters.Counter private _listedItems;\r\n    Counters.Counter private _tokenId;\r\n\r\n    struct NftItem {\r\n        uint256 tokenId;\r\n        uint256 price;\r\n        address creator;\r\n        bool isListed;\r\n    }\r\n\r\n    uint256 public listingPrice = 0.025 ether;\r\n\r\n    uint256[] private _allNfts;\r\n\r\n    mapping(string => bool) _usedTokenURIs;\r\n    mapping(uint256 => NftItem) private _idToNftItem;\r\n    mapping(uint256 => uint256) _idToNftIndex;\r\n\r\n    mapping(address => mapping(uint256 => uint256)) private _ownedTokens;\r\n    mapping(uint256 => uint256) _idToOwnedIndex;\r\n\r\n    event NftItemCreated(\r\n        uint256 tokenId,\r\n        uint256 price,\r\n        address creator,\r\n        bool isListed\r\n    );\r\n\r\n    constructor() ERC721(\"CreaturesNFT\", \"CNFT\") {}\r\n\r\n    receive() external payable {}\r\n\r\n    fallback() external payable {}\r\n\r\n    function setListingPrice(uint256 _price) external onlyOwner {\r\n        require(_price > 0, \"Price must be at least 1 wei\");\r\n        listingPrice = _price;\r\n    }\r\n\r\n    function getNftItem(uint256 tokenId) public view returns (NftItem memory) {\r\n        return _idToNftItem[tokenId];\r\n    }\r\n\r\n    function listedItemsCount() public view returns (uint256) {\r\n        return _listedItems.current();\r\n    }\r\n\r\n    function tokenURIExists(string memory tokenURI) public view returns (bool) {\r\n        return _usedTokenURIs[tokenURI];\r\n    }\r\n\r\n    function totalSupply() public view returns (uint256) {\r\n        return _allNfts.length;\r\n    }\r\n\r\n    function tokenByIndex(uint256 index) public view returns (uint256) {\r\n        require(index < totalSupply(), \"Index out of bounds\");\r\n        return _allNfts[index];\r\n    }\r\n\r\n    function tokenOfOwnerByIndex(address owner, uint256 index)\r\n        public\r\n        view\r\n        returns (uint256)\r\n    {\r\n        require(index < ERC721.balanceOf(owner), \"Index out of bounds\");\r\n        return _ownedTokens[owner][index];\r\n    }\r\n\r\n    function getAllNftsOnSale() public view returns (NftItem[] memory) {\r\n        uint256 allItemsCounts = totalSupply();\r\n        uint256 currentIndex = 0;\r\n        NftItem[] memory items = new NftItem[](_listedItems.current());\r\n\r\n        for (uint256 i = 0; i < allItemsCounts; i++) {\r\n            uint256 tokenId = tokenByIndex(i);\r\n            NftItem storage item = _idToNftItem[tokenId];\r\n\r\n            if (item.isListed == true) {\r\n                items[currentIndex] = item;\r\n                currentIndex++;\r\n            }\r\n        }\r\n\r\n        return items;\r\n    }\r\n\r\n    function getOwnedNfts() public view returns (NftItem[] memory) {\r\n        address sender = _msgSender();\r\n        uint256 ownedItemsCount = ERC721.balanceOf(sender);\r\n        NftItem[] memory items = new NftItem[](ownedItemsCount);\r\n\r\n        for (uint256 i = 0; i < ownedItemsCount; i++) {\r\n            uint256 tokenId = tokenOfOwnerByIndex(sender, i);\r\n            NftItem storage item = _idToNftItem[tokenId];\r\n            items[i] = item;\r\n        }\r\n\r\n        return items;\r\n    }\r\n\r\n    function burnToken(uint256 tokenId) public {\r\n        _burn(tokenId);\r\n    }\r\n\r\n    function mintToken(string memory tokenURI, uint256 price)\r\n        public\r\n        payable\r\n        returns (uint256)\r\n    {\r\n        require(!tokenURIExists(tokenURI), \"Token URI already exists\");\r\n        require(\r\n            msg.value == listingPrice,\r\n            \"Price must be equal to listing price\"\r\n        );\r\n\r\n        _tokenId.increment();\r\n        _listedItems.increment();\r\n\r\n        uint256 newTokenId = _tokenId.current();\r\n\r\n        _usedTokenURIs[tokenURI] = true;\r\n        _createNftItem(newTokenId, price);\r\n        _safeMint(msg.sender, newTokenId);\r\n        _setTokenURI(newTokenId, tokenURI);\r\n\r\n        return newTokenId;\r\n    }\r\n\r\n    function buyNft(uint256 tokenId) public payable {\r\n        address sender = _msgSender();\r\n        uint256 price = _idToNftItem[tokenId].price;\r\n        address owner = ERC721.ownerOf(tokenId);\r\n        require(sender != owner, \"You already own this NFT\");\r\n        require(msg.value == price, \"Please submit the asking price\");\r\n        _idToNftItem[tokenId].isListed = false;\r\n        _listedItems.decrement();\r\n\r\n        _transfer(owner, sender, tokenId);\r\n        (bool success, ) = payable(owner).call{value: msg.value}(\"\");\r\n        require(success, \"Cannot transfer token to owner\");\r\n    }\r\n\r\n    function placeNftOnSale(uint256 tokenId, uint256 price) public payable {\r\n        address sender = _msgSender();\r\n        require(\r\n            ERC721.ownerOf(tokenId) == sender,\r\n            \"You are not owner of this nft\"\r\n        );\r\n        require(\r\n            _idToNftItem[tokenId].isListed == false,\r\n            \"Item is already on sale\"\r\n        );\r\n        require(\r\n            msg.value == listingPrice,\r\n            \"Price must be equal to listing price\"\r\n        );\r\n\r\n        _idToNftItem[tokenId].isListed = true;\r\n        _idToNftItem[tokenId].price = price;\r\n        _listedItems.increment();\r\n    }\r\n\r\n    function _createNftItem(uint256 tokenId, uint256 price) private {\r\n        require(price > 0, \"Price must be at least 1 wei\");\r\n        address sender = _msgSender();\r\n        _idToNftItem[tokenId] = NftItem(tokenId, price, sender, true);\r\n\r\n        emit NftItemCreated(tokenId, price, sender, true);\r\n    }\r\n\r\n    function _beforeTokenTransfer(\r\n        address from,\r\n        address to,\r\n        uint256 tokenId\r\n    ) internal virtual override {\r\n        super._beforeTokenTransfer(from, to, tokenId);\r\n        //minting token\r\n        if (from == address(0)) {\r\n            _addTokenToAllTokensEnumeration(tokenId);\r\n        } else if (from != to) {\r\n            _removeTokenFromOwnerEnumeration(from, tokenId);\r\n        }\r\n\r\n        if (to == address(0)) {\r\n            _removeTokenFromAllTokensEnumeration(tokenId);\r\n        } else if (to != from) {\r\n            _addTokenToOwnerEnumeration(to, tokenId);\r\n        }\r\n    }\r\n\r\n    function _addTokenToAllTokensEnumeration(uint256 tokenId) private {\r\n        _idToNftIndex[tokenId] = _allNfts.length;\r\n        _allNfts.push(tokenId);\r\n    }\r\n\r\n    function _addTokenToOwnerEnumeration(address to, uint256 tokenId) private {\r\n        uint256 length = ERC721.balanceOf(to);\r\n        _ownedTokens[to][length] = tokenId;\r\n        _idToOwnedIndex[tokenId] = length;\r\n    }\r\n\r\n    function _removeTokenFromOwnerEnumeration(address from, uint256 tokenId)\r\n        private\r\n    {\r\n        uint256 lastTokenIndex = ERC721.balanceOf(from) - 1;\r\n        uint256 tokenIndex = _idToOwnedIndex[tokenId];\r\n        if (tokenIndex != lastTokenIndex) {\r\n            uint256 lastTokenId = _ownedTokens[from][lastTokenIndex];\r\n            _ownedTokens[from][tokenIndex] = lastTokenId;\r\n        }\r\n\r\n        delete _idToOwnedIndex[tokenId];\r\n        delete _ownedTokens[from][lastTokenIndex];\r\n    }\r\n\r\n    function _removeTokenFromAllTokensEnumeration(uint256 tokenId) private {\r\n        uint256 lastTokenIndex = _allNfts.length - 1;\r\n        uint256 tokenIndex = _idToNftIndex[tokenId];\r\n        uint256 lastTokenId = _allNfts[lastTokenIndex];\r\n\r\n        _allNfts[tokenIndex] = lastTokenId;\r\n        _idToNftIndex[lastTokenId] = tokenIndex;\r\n\r\n        delete _idToNftIndex[tokenId];\r\n        _allNfts.pop();\r\n    }\r\n\r\n    function widthDraw() external onlyOwner {\r\n        address sender = _msgSender();\r\n        (bool success, ) = sender.call{value: balanceOf(address(this))}(\"\");\r\n        require(success, \"Cannot transfer token\");\r\n    }\r\n}\r\n",
  "sourcePath": "D:\\blockchain\\nft-marketplace\\contracts\\NFTMarket.sol",
  "compiler": {
    "name": "solc",
    "version": "0.8.10+commit.fc410830.Emscripten.clang"
  },
  "schemaVersion": "3.4.4",
  "updatedAt": "2022-08-23T07:10:07.870Z",
  "networkType": "ethereum",
  "devdoc": {
    "kind": "dev",
    "methods": {
      "approve(address,uint256)": {
        "details": "See {IERC721-approve}."
      },
      "balanceOf(address)": {
        "details": "See {IERC721-balanceOf}."
      },
      "getApproved(uint256)": {
        "details": "See {IERC721-getApproved}."
      },
      "isApprovedForAll(address,address)": {
        "details": "See {IERC721-isApprovedForAll}."
      },
      "name()": {
        "details": "See {IERC721Metadata-name}."
      },
      "owner()": {
        "details": "Returns the address of the current owner."
      },
      "ownerOf(uint256)": {
        "details": "See {IERC721-ownerOf}."
      },
      "renounceOwnership()": {
        "details": "Leaves the contract without owner. It will not be possible to call `onlyOwner` functions anymore. Can only be called by the current owner. NOTE: Renouncing ownership will leave the contract without an owner, thereby removing any functionality that is only available to the owner."
      },
      "safeTransferFrom(address,address,uint256)": {
        "details": "See {IERC721-safeTransferFrom}."
      },
      "safeTransferFrom(address,address,uint256,bytes)": {
        "details": "See {IERC721-safeTransferFrom}."
      },
      "setApprovalForAll(address,bool)": {
        "details": "See {IERC721-setApprovalForAll}."
      },
      "supportsInterface(bytes4)": {
        "details": "See {IERC165-supportsInterface}."
      },
      "symbol()": {
        "details": "See {IERC721Metadata-symbol}."
      },
      "tokenURI(uint256)": {
        "details": "See {IERC721Metadata-tokenURI}."
      },
      "transferFrom(address,address,uint256)": {
        "details": "See {IERC721-transferFrom}."
      },
      "transferOwnership(address)": {
        "details": "Transfers ownership of the contract to a new account (`newOwner`). Can only be called by the current owner."
      }
    },
    "version": 1
  },
  "userdoc": {
    "kind": "user",
    "methods": {},
    "version": 1
  }
}